:100000000C9434000C9446000C9446000C9446006A
:100010000C9446000C9446000C9446000C94460048
:100020000C9446000C9446000C9446000C94460038
:100030000C9446000C9446000C9446000C94460028
:100040000C9446000C9446000C9446000C94460018
:100050000C9446000C9446000C9446000C94460008
:100060000C9448000C94460011241FBECFEFD8E03A
:10007000DEBFCDBF21E0A0E0B1E001C01D92A23003
:10008000B207E1F70E941B010C9442010C9400009E
:100090001F920F920FB60F9211248F938091B90087
:1000A000887F803611F0803819F485EC8093BC008D
:1000B00085EC8093BC008F910F900FBE0F901F9026
:1000C0001895209A84B1876184B9559A569A5298A6
:1000D0005A9A089588E48093B8001092B90085E494
:1000E0008093BC0080E48093BA00089584EA8093F2
:1000F000BC0084E69091BC0097FD0AC08823A9F05B
:10010000EFE9FFE03197F1F700C000008150F2CF36
:10011000882359F081E090E09093010180930001E1
:1001200085ED8093BC005D9A089582E090E0909305
:1001300001018093000185E48093BC005E9A0895DC
:10014000209100013091010121303105E9F494EA58
:100150009093BC009091BC0097FFFCCF90E49093EB
:10016000BB0094E89093BC009091BC0097FFFCCF3B
:100170008093BB0084E88093BC008091BC0087FF23
:10018000FCCF84E98093BC00089580910001909198
:1001900001010197F1F484EA8093BC008091BC00D6
:1001A00087FFFCCF81E48093BB0084E88093BC0090
:1001B0008091BC0087FFFCCF84E88093BC008091D5
:1001C000BC0087FFFCCF8091BB0094E99093BC00FA
:1001D000089580E008951092C50088E08093C400DF
:1001E000E1ECF0E0808188608083808180618083A1
:1001F000E2ECF0E080818460808380818260808393
:1002000008959091C00095FFFCCF8093C60008959B
:100210008091C00087FFFCCF8091C6000895CF93E6
:10022000DF93EC018991882319F00E940101FACF34
:10023000DF91CF9108950E9461000E946A00789436
:100240000E947600C7E18091000190910101019721
:1002500091F485B18C2785B982E40E94A0002FEF2C
:1002600083ED90E3215080409040E1F700C0000012
:1002700085B18C2785B98FE39CE90197F1F700C020
:080280000000E1CFF894FFCF6C
:00000001FF
