:100000000C9434000C943E000C943E000C943E0082
:100010000C943E000C943E000C943E000C943E0068
:100020000C943E000C943E000C943E000C943E0058
:100030000C943E000C943E000C943E000C943E0048
:100040000C943E000C943E000C943E000C943E0038
:100050000C943E000C943E000C943E000C943E0028
:100060000C943E000C943E0011241FBECFEFD8E04C
:10007000DEBFCDBF0E946C000C946F000C9400009A
:10008000219AE0E8F0E010828081806480838081A2
:100090008F77808380818E7F808380818260808360
:1000A000E1E8F0E0808188608083808180618083E6
:1000B00080818460808380818D7F808380818E7F3A
:1000C000808382E19AE79093890080938800109260
:1000D00085001092840008950E944000FFCFF8949C
:0200E000FFCF50
:00000001FF
